:020000040000FA
:060000006BEF0DF0120091
:020006001200E6
:06000800E9EF0AF012000E
:02000E000200EE
:100010004D1800005A04000001000000F21A000010
:08002000500400000A0000007A
:08002800D9CFE6FFE1CFD9FFBB
:10003000E6526A6A686A160E6F6E9F0E6B6E7B0ED2
:10004000696E6D8C6E6A020EE66EE66AE66A710E85
:10005000E66E0F0EE66E2AEC0DF00B6E050EE15EFD
:100060000B506D9CDF6ADF500B6E0C6A100E0B5C40
:10007000000E0C5810E2DF50040DF3CFE9FFF4CF6F
:10008000EAFF000EE926040EEA22EE6AEE6AEE6A44
:10009000EE6ADF2AE8D7160E706E68A60CD0030E43
:1000A000E66E680EE66E0F0EE66ED1EC07F0E552D6
:1000B000E552E552F2D70001D66BDB6BDC6BDD6BF2
:1000C0006D98080ECA6F040ECB6FBB6BBA6BE5520E
:1000D000E552E7CFD9FF1200D9CFE6FFE1CFD9FF34
:1000E000E6520001BA0507E16DBA05D0686A698079
:1000F0006988020EBA6F6850040B0FE06950040B58
:100100000CE0020EE66E680EE66E0F0EE66ED1ECA7
:1001100007F0E552E552E552B3D86DA202D0A19A9C
:1001200078D06850010B1BE06950010B18E07CDFB0
:100130000001040EBA6F0401400E026F040E036F3B
:10014000080E016F006B8C0E0013E66A680EE66EF7
:100150000F0EE66ED1EC07F0E552E552E55268501D
:10016000100B0FE06950100B0CE07BD8040EE66E0C
:10017000680EE66E0F0EE66ED1EC07F0E552E55222
:10018000E5526850400B10E06950400B0DE037EC31
:100190000CF0060EE66E680EE66E0F0EE66ED1EC03
:1001A00007F0E552E552E5526850200B04E0695033
:1001B000200B01E033D86850020B06E06950020BB7
:1001C00003E038EC0CF06A6A040E0001BA5D02E24A
:1001D000A19A1FD069A61CD0DF6A040EDF5C18E26A
:1001E00068A615D06CCFE3F0030EE66E680EE66EDF
:1001F0000F0EE66ED1EC07F0E552E552E552780EAF
:100200000001E31502E14FD800D0DF2AE6D700D085
:10021000A19AE552E552E7CFD9FF120070A015D0A0
:10022000BEC0E9FFBFC0EAFFEF5080080DE1CAC0C1
:10023000E9FFCBC0EAFFEF50840806E1BEC0E9FF4A
:10024000BFC0EAFF8C0EEF6E7090050EE66E680E72
:10025000E66E0F0EE66ED1EC07F0E552E552E55280
:1002600012006984040EE66E680EE66E0F0EE66EEE
:10027000D1EC07F0E552E552E5526D8235EF0CF016
:1002800036EC0CF06D92699468A40CD0020EE66E08
:10029000680EE66E0F0EE66ED1EC07F0E552E55201
:1002A000E552F2D71200D9CFE6FFE1CFD9FFE652EF
:1002B000FD0E0001E3155AE17E0EE315E8407F0BC9
:1002C000040DF3CFBEF0F4CFBFF0000EBE27040E36
:1002D000BF23BEC0C0F0BFC0C1F0C075BEC0E9FF43
:1002E000BFC0EAFFEF503C0BE842E8420D083CE19A
:1002F000BEC0E9FFBFC0EAFF020EE926000EEA22F7
:10030000EECF0BF0EFCF0CF0480E0B1802E1040E0D
:100310000C1828E1BEC0E9FFBFC0EAFF020EE926C3
:10032000000EEA22400EEE6E040EED6EDF6ADF5024
:100330000B6E0C6A080E0B5C000E0C5813E2DF50BB
:10034000EA6A480FE96E040EEA22EF50E66EDF50CB
:10035000EA6A400FE96E040EEA22E552E750EF6EBA
:10036000DF2AE5D70DD801D022D805D0FD0EE31540
:10037000040801E142D8E552E552E7CFD9FF120067
:10038000CAC0E9FFCBC0EAFFEF50800B05E0CAC04E
:10039000E9FFCBC0EAFFEF6A0001D26BD36BD76BEA
:1003A000D86BD66BAAD839EC0CF01DEF04F0020E16
:1003B0000001D35D02E1A1DB1FD06CD80001E45144
:1003C0001AE1C0C0E9FFC1C0EAFFEE52080EEF6EAD
:1003D000C0C0E9FFC1C0EAFF020EE926000EEA2212
:1003E000400EEE6E040EED6EC0C0E9FFC1C0EAFF24
:1003F0008C0EEF6E01D0E46B1200D9CFE6FFE1CF97
:10040000D9FFE652CAC0E9FFCBC0EAFFEF50400B6C
:1004100001E0010EDF6E0001CA75080EBA5D0AE147
:1004200042C46EFF6E50000803E2100EBA6F02D095
:10043000040EBA6FD30528E1CAC0E9FFCBC0EAFFBA
:10044000020EE926000EEA22480EEE6E040EED6E54
:10045000C9DA020E0001D25D07E1CAC0E9FFCBC0D4
:10046000EAFF840EEF6E0FD0DF5007E1CAC0E9FF4C
:10047000CBC0EAFFC80EEF6E06D0CAC0E9FFCBC002
:10048000EAFF880EEF6E01D005D8E552E552E7CFBE
:10049000D9FF1200D9CFE6FFE1CFD9FF020EE12646
:1004A0000001D36BCAC0E9FFCBC0EAFFEF6A040EBC
:1004B000CA190B6ECBC00CF00BC0DEFF0CC0DDFF09
:1004C000DECFE9FFDDCFEAFFEF6ADBAF0CD0DE5114
:1004D000DF1107E005D0DFC0FAFF0001DE51F96E41
:1004E000FADF0001DB9F020EE15C02E2E16AE55205
:1004F000E16EE552E7CFD9FF120004014051600BD5
:10050000E842E842E842E842E842000901E04CD013
:1005100041510C0A48E00B0A43E00C0A35E0010A9D
:1005200026E00B0A22E0020A20E0030A1CE0080A87
:1005300010E0010A0CE00F0A08E0030A01E033D0E2
:100540000001D68F080EBA6F2FD0BCD82DD073DB28
:100550002BD00001BB0ED46F000ED56FD681010EDB
:10056000D76FD68F21D008D91FD01FD81DD04451A6
:100570000001D46FD56BBC0ED427000ED523D681D5
:10058000010ED76FD68F10D00001D68F04014451D1
:10059000EA6ABC0FE96E000EEA2242C4EFFF04D003
:1005A0003AEC0CF001D000D01200D9CFE6FFE1CF39
:1005B000D9FF040EE1260401420510E140511F0B52
:1005C00000090CE10001D68F030E0401415D04E136
:1005D0000001010EE26F02D00001E26B0401425102
:1005E00067E140511F0B020863E144510F0B000902
:1005F0005FE00001D68F040144BF10D044510F0BBF
:10060000E96EEA6AD890E936EA36C20EE926000EAB
:10061000EA22EECFDEFFEDCFDDFF0FD044510F0B0E
:10062000E96EEA6AD890E936EA36CA0EE926000E83
:10063000EA22EECFDEFFEDCFDDFF030E415D07E1E5
:10064000DECFE9FFDDCFEAFF840EEF6E31D04451FB
:100650000F0B0C6A700F0B6E0F0E0C22020E0BC0EC
:10066000DBFF030E0CC0DBFF020EDBCFE9FF030E46
:10067000DBCFEAFFEE90ED5244AF0DD0DECFE9FFC5
:10068000DDCFEAFFEF6ADF74DECFE9FFDDCFEAFFFF
:10069000400EEF6E0DD0DECFE9FFDDCFEAFF880E12
:1006A000EF6EDF74DECFE9FFDDCFEAFFC80EEF6E3D
:1006B000040EE15C02E2E16AE552E16EE552E7CF49
:1006C000D9FF1200800E0401405D55E10001C00E0B
:1006D000D66F04014351030A2EE0010A0EE0030A1B
:1006E00003E00001D66B47D000015E0ED46F170EF9
:1006F000D56F120ED76FD86B3ED04251F66EF76AA7
:10070000D890F636F736450EF626180EF722090071
:10071000F5CFD4F00A00F5CFD5F0020E0001F76A4C
:10072000D425F66ED551F7220900F5CFD7F00A008F
:10073000F5CFD8F020D0030E425D1AE24251F66E9A
:10074000F76AD890F636F736470EF626180EF722D7
:100750000900F5CFD4F00A00F5CFD5F0D4C0F6FFEC
:10076000D5C0F7FF0800F5500001D76FD86B02D055
:100770000001D66B00D01200D9CFE6FFE1CFD9FF40
:10078000020EE1260401486B496B40511F0B020A1F
:1007900012E0030A0DE0010A01E03BD00001D68F10
:1007A000040148810001E20502E10401488331D0DF
:1007B0000001D68F2ED00001D68F040144BF10D087
:1007C00044510F0BE96EEA6AD890E936EA36C20E58
:1007D000E926000EEA22EECFDEFFEDCFDDFF0FD0DF
:1007E00044510F0BE96EEA6AD890E936EA36CA0E30
:1007F000E926000EEA22EECFDEFFEDCFDDFFDECFF1
:10080000E9FFDDCFEAFFEF50040B02E0010E486F75
:1008100000D00001D6AF07D0480ED46F040ED56FBC
:10082000D681020ED76F020EE15C02E2E16AE55268
:10083000E16EE552E7CFD9FF12006D980001D6BFF7
:100840004AD0DBAF28D0020ED36FCAC0E9FFCBC0BD
:10085000EAFFEE52EF6ACAC0E9FFCBC0EAFFC80E5A
:10086000EF6EC0C0E9FFC1C0EAFFEE52080EEF6EA6
:10087000C0C0E9FFC1C0EAFF020EE926000EEA226D
:10088000480EEE6E040EED6EC0C0E9FFC1C0EAFF77
:10089000C80EEF6E1FD0C0C0E9FFC1C0EAFFEE5224
:1008A000080EEF6EC0C0E9FFC1C0EAFF020EE926E4
:1008B000000EEA22400EEE6E040EED6EC0C0E9FF9F
:1008C000C1C0EAFF8C0EEF6ECAC0E9FFCBC0EAFFE1
:1008D000840EEF6E86D0DBBF84D0040140AF59D0C8
:1008E0000001D7510401465D0001D8510401475968
:1008F00004E246C4D7F047C4D8F074D80001010E12
:10090000D36FC0C0E9FFC1C0EAFFEE52080EEF6E20
:10091000C0C0E9FFC1C0EAFF020EE926000EEA22CC
:10092000400EEE6E040EED6EC0C0E9FFC1C0EAFFDE
:10093000800EEF6EE46BBEC0E9FFBFC0EAFFEE526F
:10094000080EEF6EBEC0E9FFBFC0EAFF020EE92647
:10095000000EEA22400EEE6E040EED6EBEC0E9FF00
:10096000BFC0EAFF840EEF6E010EE46FCAC0E9FF5C
:10097000CBC0EAFF020EE926000EEA22480EEE6E18
:10098000040EED6ECAC0E9FFCBC0EAFFC80EEF6EE1
:1009900028D00001020ED36FCAC0E9FFCBC0EAFF26
:1009A000EE52EF6ACAC0E9FFCBC0EAFFC80EEF6E95
:1009B000C0C0E9FFC1C0EAFFEE52080EEF6EC0C032
:1009C000E9FFC1C0EAFF020EE926000EEA22480E46
:1009D000EE6E040EED6EC0C0E9FFC1C0EAFFC80EA6
:1009E000EF6E1200D9CFE6FFE1CFD9FF020EE1266C
:1009F0000001080ED75D000ED8590EE2D7C0DEFF09
:100A0000D8C0DDFFD25103E1010ED26F04D0D20570
:100A100002E1020ED26F03D0080EDE6EDD6ACAC09C
:100A2000E9FFCBC0EAFFEF92CAC0E9FFCBC0EAFF03
:100A3000EF90CAC0E9FFCBC0EAFF010EDB50EF1216
:100A4000CAC0E9FFCBC0EAFFEE52DFCFEFFF000ED6
:100A5000DB50D75F010EDB50D85B480EE06F040E11
:100A6000E16FD6B121D0D9CFE9FFDACFEAFFEE505E
:100A7000ED1019E0D4C0F6FFD5C0F7FFD42B000E5F
:100A8000D5230800F550E66EE0C0E9FFE1C0EAFFBB
:100A9000E02B000EE123E552E750EF6EDF06010E7A
:100AA00001E2DB06E0D71FD0D9CFE9FFDACFEAFFBA
:100AB000EE50ED1018E0D4C0E9FFD5C0EAFFD42B0A
:100AC000000ED523EF50E66EE0C0E9FFE1C0EAFF7B
:100AD000E02B000EE123E552E750EF6EDF06010E3A
:100AE00001E2DB06E1D7020EE15C02E2E16AE552D7
:100AF000E16EE552E7CFD9FF1200D9CFE6FFE1CF93
:100B0000D9FF020EE126BEC0E9FFBFC0EAFFEE52E8
:100B1000EFCFDFFFDFCF0BF00B500001DC5D000EED
:100B2000DD5903E2DCC0DFFF09D0DF500B6E0C6A39
:100B30000B50DC5DDC6F0C50DD59DD6F010EDB6AA4
:100B4000DF50F36E010EDBCFF4FFF350F45C16E2DE
:100B5000010EDB50EA6A480FE96E040EEA22EF50FC
:100B6000E66ED9C0E9FFDAC0EAFFD92B000EDA231E
:100B7000E552E750EF6E010EDB2AE2D7000ED88077
:100B8000DC55000EDD5528E2C0C0E9FFC1C0EAFF18
:100B9000EE52080EEF6EC0C0E9FFC1C0EAFF020EC0
:100BA000E926000EEA22480EEE6E040EED6EBEC07F
:100BB000E9FFBFC0EAFFEF50400B07E1C0C0E9FF0B
:100BC000C1C0EAFFC80EEF6E06D0C0C0E9FFC1C0C9
:100BD000EAFF880EEF6E25D0C0C0E9FFC1C0EAFF72
:100BE000EE52080EEF6EC0C0E9FFC1C0EAFF020E70
:100BF000E926000EEA22400EEE6E040EED6EC0C035
:100C0000E9FFC1C0EAFF840EEF6EDE51DF1107E09D
:100C100005D0DFC0FAFF0001DE51F96EFADF0001F6
:100C2000DB9F020EE15C02E2E16AE552E16EE55211
:100C3000E7CFD9FF12000001D68F020EE66EE66AFA
:100C4000E66A710EE66E0F0EE66E2AEC0DF00B6E84
:100C5000050EE15E0B50020EE66EE66AE66ABC0E19
:100C6000E66E000EE66E2AEC0DF00B6E050EE15EF0
:100C70000B5042C4BBF00401425104E10001100ECC
:100C8000BA6F05D00001200EBA6F3BEC0CF01200D9
:100C9000D9CFE6FFE1CFD9FF020EE126000EDE6ECE
:100CA000040EDD6EFD0EDB50E8240D6EFE0EDB50F3
:100CB000040DF3500D24040DF3500B6E0C6A020E5C
:100CC0000F0B05E0D8900C320B32E806FBE1D89010
:100CD0000B360C36D8900B360C36D9CFE9FFDACF6D
:100CE000EAFF0B50EE260C50ED22DECFE9FFDDCF00
:100CF000EAFFEF9EFD0EDB500FE1FE0EEA6ADB34E9
:100D0000FE0BEA36E96EC20EE926000EEA22DECFBD
:100D1000EEFFDDCFEDFF0ED0FE0EEA6ADB34FE0BF8
:100D2000EA36E96ECA0EE926000EEA22DECFEEFFB1
:100D3000DDCFEDFFDECFE9FFDDCFEAFFEF9CDECFB9
:100D4000E9FFDDCFEAFF040EE926000EEA22EF8C70
:100D5000020EE15C02E2E16AE552E16EE552E7CFA4
:100D6000D9FF1200D9CFE6FFE1CFD9FF020EE1266D
:100D7000FE0EDB500C6A700F0B6E0F0E0C220BC0B8
:100D8000DEFF0CC0DDFFDECFE9FFDDCFEAFFFD0EA9
:100D9000DBCFEFFFDBA407D0E66AFE0EDBCFE6FF7A
:100DA00077DFE552E552FD0EDBA208D0010EE66EBC
:100DB000FE0EDBCFE6FF6CDFE552E552020EE15C92
:100DC00002E2E16AE552E16EE552E7CFD9FF120097
:100DD000D9CFE6FFE1CFD9FF020EE126FE0EDB50B0
:100DE00020E1C0C0E9FFC1C0EAFFEE52080EEF6E7D
:100DF000C0C0E9FFC1C0EAFF020EE926000EEA22E8
:100E0000400EEE6E040EED6EC0C0E9FFC1C0EAFFF9
:100E10008C0EEF6ECAC0E9FFCBC0EAFF840EEF6E06
:100E20003DD0FD0EDB50E8240D6EFE0EDB50040DB0
:100E3000F3500D24040DF3CF0BF0F4CF0CF0000EA3
:100E40000B26040E0C220BC0DEFF0CC0DDFF840E4F
:100E50000B6EDECFE9FFDDCFEAFF0B50EF12FD0E88
:100E6000DB50E8240D6EFE0EDB50040DF3500D2414
:100E7000010F040DF3CF0BF0F4CF0CF0000E0B2696
:100E8000040E0C220BC0DEFF0CC0DDFF840E0B6EC7
:100E9000DECFE9FFDDCFEAFF0B50EF12020EE15C7F
:100EA00002E2E16AE552E16EE552E7CFD9FF1200B6
:100EB000D9CFE6FFE1CFD9FF020EE126FD0EDB50D0
:100EC0000FE0FE0EEA6ADB34FE0BEA36E96ECA0E6C
:100ED000E926000EEA22EECFDEFFEDCFDDFF0ED0D9
:100EE000FE0EEA6ADB34FE0BEA36E96EC20EE92634
:100EF000000EEA22EECFDEFFEDCFDDFFDECFE9FF11
:100F0000DDCFEAFF020EE926000EEA22FB0EDBCF60
:100F1000EEFFFC0EDBCFEDFFDECFE9FFDDCFEAFF1A
:100F2000EE52FA0EDBCFEFFF400E0B6EDECFE9FF85
:100F3000DDCFEAFF0B50EF16880E0B6EDECFE9FF18
:100F4000DDCFEAFF0B50EF12FD0EDB500CE0FE0E82
:100F5000EA6ADB34FE0BEA36E96ECA0EE926000EB9
:100F6000EA22EF740BD0FE0EEA6ADB34FE0BEA369F
:100F7000E96EC20EE926000EEA22EF74DECF0BF016
:100F8000DDCF0CF00BC0F3FF0CC0F4FF020EE15CF0
:100F900003E200D0E16AE552E16EE552E7CFD9FF06
:100FA0001200D9CFE6FFE1CFD9FF010EF36EFC0EA0
:100FB000DB5004E0D890F336E806FCE1F350E81C7F
:100FC0000B6EFD0EDBCFE9FFFE0EDBCFEAFF0B5011
:100FD000EF16E552E7CFD9FF120005D06D6A696AB6
:100FE0000001BA6B00D012000001BA5113E16D6A22
:100FF000696A160E6F6E9F0E6B6E7B0E696ED08ED9
:10100000A28AA08AF28E6DB602D06D86FCD700014E
:06101000010EBA6F120090
:0A101600D9CFE6FFE1CFD9FFE65283
:101020000001A16B1E0EE66E020EE66EB2EC06F03B
:10103000E552E552400EE66E000EE66E050EE66ED7
:10104000E66A020EE66E58EC07F00B6E050EE15EE6
:101050000B50F3CFA2F0F4CFA3F00001A46BA56B6B
:10106000E552E552E7CFD9FF1200D9CFE6FFE1CF35
:10107000D9FFE652DF6AFE0EDBAEA2D00401518139
:10108000DB50F00BC00A26E0100A24E0500A14E0FE
:10109000100A12E0300A10E0100A0EE0500A0CE0CC
:1010A000FE0EDB50F20A5DE0030A51E0060A2FE073
:1010B000070A1FE0516B82D0FE0EDB380F0B0501D3
:1010C000406FFE0EDBCF41F50401020E536F040E9C
:1010D000526F75D0FE0EDB380F0B0501406FFE0E10
:1010E000DBCF41F5436B0401020E536F030E526FC9
:1010F00066D051830501040E406FFE0EDBCF41F533
:10110000436B0401020E536F040E526F57D051A36C
:101110001CD0040E53250501406F04015351EA6AA7
:10112000400FE96E050EEA22FE0EDBCFEFFF030E45
:10113000535D09E2532B5351EA6A400FE96E050EE5
:10114000EA22EF6AF4D7010EDF6E516B37D051857A
:101150000501F10E406F0401010E536F040E526F32
:101160002DD051A527D0030E535D24E1310E05018A
:10117000415D08E1040E425D05E242C5E6FF63EC15
:101180000BF0E552320E0501415D14E1F10EE66E01
:1011900044EC0DF0E552320EE66E44EC0DF0E552F3
:1011A00042C5E6FF44EC0DF0E552F20EE66E44EC6B
:1011B0000DF0E5520401516B01D000D000D01AD0DF
:1011C0000401515117E05351EA6A400FE96E050ED0
:1011D000EA22FE0EDBCFEFFF532B5251535D0AE3A1
:1011E00051A305D0010E536F040E526F01D0516B05
:1011F000010EDF6EDF5000D0E552E552E7CFD9FF98
:101200001200D9CFE6FFE1CFD9FFE652200E000150
:10121000BA5D03E36D50020B01E0F8D7DF6A400EC0
:10122000DF5C25E20001A451A51102E1000E08D007
:10123000A4C0E9FFA5C0EAFFEF50800B01E0010E5A
:10124000000901E0EFD7E66A000EE66EE66A010EDD
:10125000E66E020EE66E58EC07F00B6E050EE15ED0
:101260000B50F3CFA4F0F4CFA5F0DF2AD8D7E55286
:10127000E552E7CFD9FF1200D9CFE6FFE1CFD9FF82
:10128000E652200E0001BA5D03E36D50020B01E04F
:101290009AD0A09A0001A451A51102E1000E08D035
:1012A000A4C0E9FFA5C0EAFFEF50800B01E0010EEA
:1012B000000902E0A08A87D0020E0401595D14E102
:1012C000E66A000EE66EE66A010EE66E020EE66E55
:1012D00058EC07F00B6E050EE15E0B50F3CFA4F057
:1012E000F4CFA5F00401596B59056CE1020E596F5A
:1012F000010EDF6E020EDF5C35E2DF38F00B0B6EA5
:101300000F0E050140150B10E66E040EDF02F350C0
:10131000EA6A400FE96E050EEA22E552E750EF6EE9
:10132000040EDF02F328EA6A400FE96E050EEA2296
:1013300041C5EFFF040EDF02F350020FEA6A400FCF
:10134000E96E050EEA2242C5EFFF040EDF02F350FC
:10135000030FEA6A400FE96E050EEA2243C5EFFF6C
:10136000DF2AC8D7DF6ADF500B6E0C6A080E0B5CF1
:10137000000E0C5813E2DF50EA6A400FE96E050ECA
:10138000EA22EF50E66EDF50EA6A480FE96E050E7A
:10139000EA22E552E750EF6EDF2AE5D7080EE66E47
:1013A000480EE66E050EE66E010EE66E020EE66E65
:1013B00058EC07F00B6E050EE15E0B50F3CFA4F076
:1013C000F4CFA5F0A08AE552E552E7CFD9FF12008D
:1013D000040158511BE0595101E018D05751EA6AF5
:1013E000A60FE96E000EEA22EF50E66E3EDEE552F1
:1013F0000401596F572B580757510B6E0C6A140E86
:101400000B5C000E0C5801E3576BE2D7595101E019
:1014100033DF1200D9CFE6FFE1CFD9FF04015851E5
:101420000B6E0C6A140E0B5C000E0C5803E3566B2B
:10143000576B586B5651EA6AA60FE96E000EEA2206
:10144000FE0EDBCFEFFF562B582B56510B6E0C6A5E
:10145000140E0B5C000E0C5801E3566BE552E7CFFF
:10146000D9FF120004015051502BEA6A600FE96E57
:10147000000EEA22EF5000D0120004015451505DDA
:1014800002E2000E47D0555143E00001A151040192
:10149000505D3EE2556B5051EA6A600FE96E000EF6
:1014A000EA22EF500F0B030A2BE0040A29E00F0A8F
:1014B00027E0010A25E0030A23E0010A21E0050AEA
:1014C0001FE00A0A17E0060A11E0040A0FE00A0A00
:1014D0000DE0010A0BE0080A05E00A0A03E05029C2
:1014E000546F12D0020E5025546F0ED0030E5025AB
:1014F000546F0AD0010E556F040E5025546F04D05E
:10150000040E5025546F00D0502B000E03D002D093
:10151000010E00D01200200E0001BA5D03E36D50F1
:10152000020B02E0000E54D0A8DF000902E1010E18
:101530004FD00401546B506B0001A16BA251A31159
:1015400002E1000E08D0A2C0E9FFA3C0EAFFEF50FD
:10155000800B01E0010E000939E1A2C0E9FFA3C040
:10156000EAFFEE52EFCFA0F0A051400802E2400E99
:10157000A06FA16BA051A15D13E2A151EA6A000F17
:10158000E96E050EEA22EF50E66EA151EA6A600F9D
:10159000E96E000EEA22E552E750EF6EA12BEAD782
:1015A000400EE66E000EE66E050EE66EE66A020E70
:1015B000E66E58EC07F00B6E050EE15E0B50F3CFB4
:1015C000A2F0F4CFA3F00401010E556F000E00D07D
:0215D000120007
:0E15D200DACFE4FFE2CFDAFFE9CFE4FFEACFA1
:1015E000E4FFF6CFE4FFF7CFE4FFF5CFE4FFF3CF5E
:1015F000E4FFF4CFE4FFFACFE4FF00EE00F00B0EBF
:10160000E80403E3EECFE4FFFBD700EE0BF0030E9C
:10161000E80403E3EECFE4FFFBD7E652D9CFE6FFC1
:10162000E1CFD9FF020EE1269EAA0AD0010EABCF70
:10163000DBFFAE50DF6EDFCFE6FF0AEC0AF0E552CB
:101640006CEC00F0020EE15C02E2E16AE552E16E50
:10165000E552E7CFD9FFE55200EE0DF0030EE804A6
:1016600003E3E5CFEDFFFBD700EE0AF00B0EE80435
:1016700003E3E5CFEDFFFBD7E5CFFAFFE5CFF4FFBE
:10168000E5CFF3FFE5CFF5FFE5CFF7FFE5CFF6FFB9
:10169000E5CFEAFFE5CFE9FFE5CFDAFF1100D9CFCB
:1016A000E6FFE1CFD9FFE65232EC0AF0DF6E9EA8EA
:1016B000FED7DFCFE6FF44EC0DF0E552E552E552F0
:1016C000E7CFD9FF1200D9CFE6FFE1CFD9FF020E55
:1016D000E126FE0EDB50030A10E0010A0AE0030ACD
:1016E00004E0190EDE6EDD6A0CD0170EDE6EDD6AC8
:1016F00008D00F0EDE6EDD6A04D00B0EDE6EDD6AE2
:1017000000D0DECFE6FFDDCFE6FF7C0EE66EE5EC37
:101710000CF0E552E552E5529D8A020EE15C02E2D0
:10172000E16AE552E16EE552E7CFD9FF120014EC11
:1017300000F0E66AC8DFE552D08E9F8AF28CF28E06
:101740001200F5DFF4EC07F001EC09F08BEC0AF085
:0E175000000901E0A4DFE8EC09F0F8D7120070
:02175E00120176
:10176000000200000008D80401000100010200018D
:1017700009028500020100806409040000000101E3
:10178000000209240100010900010109040100020D
:101790000103000207240100016100062402010187
:1017A00000062402020200092403010301020100D1
:1017B00009240302040101010006240201050006B8
:1017C000240202060009240301070106010009247E
:1017D00003020801050100090502024000000000A3
:1017E00006250102010509058202400000000006ED
:1017F0002501020307040309042203490067006E60
:10180000006F007400750073005400650063006889
:101810000020004C00740064002E002A0342006C7B
:10182000007500650074006F006F00740068002090
:101830000050006500640061006C0062006F006190
:0D18400000720064007017F517F9171B18EF
:01184D00009A
:02184E00BAC01E
:10185000FCF0200E0001BA5D03E36D50020B01E0C5
:1018600003D00401010E5A6F120012001200120080
:101870001200120012000BEF08F06D840001080E38
:10188000FD6F070EFE6FFD07000EFE5BFD51FE11A2
:10189000FAE16D941200D9CFE6FFE1CFD9FFFD0E3A
:1018A000DBCF06F0FE0EDBCF07F0010E061801E1DC
:1018B000075033E0E868061802E1E86807182BE0F3
:1018C000030E061801E1075024E0040E061801E19A
:1018D00007501DE0020E061801E1075016E0170E32
:1018E000061801E107500FE0160E061801E1075037
:1018F00008E0150E061801E1075001E010D0BBDF2B
:101900000FD0B8DF0DD0B5DF0BD0B1DF09D0ADDF20
:1019100007D0ACDF05D0ACDF03D0000001D000D091
:0C192000010E00D0E552E7CFD9FF120005
:04192C000E0EF66E37
:10193000000EF76E000EF86E00010900F550F66F0C
:101940000900F550F76F03E1F66701D03DD00900BB
:10195000F550F16F0900F550F26F0900F550F36F83
:1019600009000900F550E96E0900F550EA6E09001A
:1019700009000900F550F46F0900F550F56F0900F2
:101980000900F6CFF8F0F7CFF9F0F8CFFAF0F1C090
:10199000F6FFF2C0F7FFF3C0F8FF0001F45302E1D5
:1019A000F55307E00900F550EE6EF407F8E2F5078D
:1019B000F9D7F8C0F6FFF9C0F7FFFAC0F8FF000149
:0A19C000F607000EF75BBFD7120018
:0619CA00D9CFE6FFDACFE1
:1019D000E6FFE1CFD9FFE2CFDAFFAC6AAB6AFD0EDA
:1019E000DBB0AC88DBA202D0AC8CAB8CDBB4AC8EB1
:1019F000DBA602D0AB8801D0AB8ADBB8AC849E9862
:101A0000DBBAAB86DBAC02D09D8A01D09D9A9E9A50
:101A1000DBAE02D09D8801D09D98FB0EDB50AF6EEF
:101A2000FB0EFC0EDBCF0CF00CC00BF00C6A0B5065
:101A3000B06EAC8AAB8E949C948EAC50100B04E0CC
:101A4000AC50800B01E1948CE552E5CFDAFFE7CF93
:041A5000D9FF1200A8
:0C1A5400FE0EE3CFE9FFFF0EE3CFEAFF38
:101A6000E9CFF3FFEACFF4FFFB0EE35003E1FC0EF6
:101A7000E35009E0FB0EE30602E2FC0EE306FD0E76
:081A8000E350EE6EF1D71200F5
:081A8800D9CFE6FFDACFE6FF3B
:101A9000E1CFD9FFE2CFDAFFACAC04D0AC900001CB
:101AA000FFB3AC80FD0EDB50AD6EE552E5CFDAFF43
:061AB000E7CFD9FF120090
:0A1AB600000EF36E00EE00F0080EC3
:101AC00001D81200EA6002D0EE6AFCD7F350E96058
:061AD0001200EE6AFCD7D3
:0A1AD60013EE00F023EE00F0F86AB2
:101AE0000A9C96EC0CF003EC00F0A1EC0BF0FBD799
:021AF0001200E2
:0A1AF20001000000000000000000E9
:020000040030CA
:0100000023DC
:010001000EF0
:010002003FBE
:010003001EDE
:010005008179
:010006008574
:010008000FE8
:01000900C036
:01000A000FE6
:01000B00E014
:01000C000FE4
:01000D0040B2
:00000001FF
